{
  "_format": "hh-sol-artifact-1",
  "contractName": "Raffle",
  "sourceName": "contracts/Raffle.sol",
  "abi": [
    {
      "inputs": [
        {
          "internalType": "uint256",
          "name": "_totalTickets",
          "type": "uint256"
        },
        {
          "internalType": "uint256",
          "name": "_ticketPrice",
          "type": "uint256"
        }
      ],
      "stateMutability": "nonpayable",
      "type": "constructor"
    },
    {
      "inputs": [
        {
          "internalType": "uint256",
          "name": "ticket",
          "type": "uint256"
        }
      ],
      "name": "buyTicket",
      "outputs": [],
      "stateMutability": "payable",
      "type": "function"
    },
    {
      "inputs": [],
      "name": "raffleOwner",
      "outputs": [
        {
          "internalType": "address",
          "name": "",
          "type": "address"
        }
      ],
      "stateMutability": "view",
      "type": "function"
    },
    {
      "inputs": [
        {
          "internalType": "uint256",
          "name": "",
          "type": "uint256"
        }
      ],
      "name": "raffle_ticket",
      "outputs": [
        {
          "internalType": "address",
          "name": "",
          "type": "address"
        }
      ],
      "stateMutability": "view",
      "type": "function"
    },
    {
      "inputs": [
        {
          "internalType": "uint256",
          "name": "newPrice",
          "type": "uint256"
        }
      ],
      "name": "setTicketPrice",
      "outputs": [],
      "stateMutability": "nonpayable",
      "type": "function"
    },
    {
      "inputs": [],
      "name": "setWinner",
      "outputs": [],
      "stateMutability": "nonpayable",
      "type": "function"
    },
    {
      "inputs": [],
      "name": "ticket_price",
      "outputs": [
        {
          "internalType": "uint256",
          "name": "",
          "type": "uint256"
        }
      ],
      "stateMutability": "view",
      "type": "function"
    },
    {
      "inputs": [],
      "name": "totalPrize",
      "outputs": [
        {
          "internalType": "uint256",
          "name": "",
          "type": "uint256"
        }
      ],
      "stateMutability": "view",
      "type": "function"
    },
    {
      "inputs": [],
      "name": "totalTickets",
      "outputs": [
        {
          "internalType": "uint256",
          "name": "",
          "type": "uint256"
        }
      ],
      "stateMutability": "view",
      "type": "function"
    }
  ],
  "bytecode": "0x6080604052600060055534801561001557600080fd5b506040516109c43803806109c4833981810160405281019061003791906100a1565b336000806101000a81548173ffffffffffffffffffffffffffffffffffffffff021916908373ffffffffffffffffffffffffffffffffffffffff160217905550816002819055508060038190555050506100fe565b60008151905061009b816100e7565b92915050565b600080604083850312156100b457600080fd5b60006100c28582860161008c565b92505060206100d38582860161008c565b9150509250929050565b6000819050919050565b6100f0816100dd565b81146100fb57600080fd5b50565b6108b78061010d6000396000f3fe60806040526004361061007b5760003560e01c806367dd74ca1161004e57806367dd74ca1461013c57806382b1ad5014610158578063dd11247e14610183578063ed05084e146101ae5761007b565b8063159816501461008057806319d41c69146100a957806329326681146100d457806347ce877a14610111575b600080fd5b34801561008c57600080fd5b506100a760048036038101906100a2919061050c565b6101c5565b005b3480156100b557600080fd5b506100be61025d565b6040516100cb9190610699565b60405180910390f35b3480156100e057600080fd5b506100fb60048036038101906100f6919061050c565b610263565b604051610108919061063e565b60405180910390f35b34801561011d57600080fd5b50610126610296565b604051610133919061063e565b60405180910390f35b6101566004803603810190610151919061050c565b6102ba565b005b34801561016457600080fd5b5061016d610328565b60405161017a9190610699565b60405180910390f35b34801561018f57600080fd5b5061019861032e565b6040516101a59190610699565b60405180910390f35b3480156101ba57600080fd5b506101c3610334565b005b60008054906101000a900473ffffffffffffffffffffffffffffffffffffffff1673ffffffffffffffffffffffffffffffffffffffff163373ffffffffffffffffffffffffffffffffffffffff1614610253576040517f08c379a000000000000000000000000000000000000000000000000000000000815260040161024a90610659565b60405180910390fd5b8060038190555050565b60035481565b60046020528060005260406000206000915054906101000a900473ffffffffffffffffffffffffffffffffffffffff1681565b60008054906101000a900473ffffffffffffffffffffffffffffffffffffffff1681565b34600160008282546102cc91906106c5565b92505081905550336004600083815260200190815260200160002060006101000a81548173ffffffffffffffffffffffffffffffffffffffff021916908373ffffffffffffffffffffffffffffffffffffffff16021790555050565b60015481565b60025481565b600060015411610379576040517f08c379a000000000000000000000000000000000000000000000000000000000815260040161037090610679565b60405180910390fd5b60008054906101000a900473ffffffffffffffffffffffffffffffffffffffff1673ffffffffffffffffffffffffffffffffffffffff163373ffffffffffffffffffffffffffffffffffffffff1614610407576040517f08c379a00000000000000000000000000000000000000000000000000000000081526004016103fe90610659565b60405180910390fd5b600061041460025461049b565b905060006004600083815260200190815260200160002060009054906101000a900473ffffffffffffffffffffffffffffffffffffffff1690508073ffffffffffffffffffffffffffffffffffffffff166108fc6001549081150290604051600060405180830381858888f19350505050158015610496573d6000803e3d6000fd5b505050565b6000600560008154809291906104b090610757565b91905055508142336005546040516020016104cd93929190610601565b6040516020818303038152906040528051906020012060001c6104f091906107ce565b9050919050565b6000813590506105068161086a565b92915050565b60006020828403121561051e57600080fd5b600061052c848285016104f7565b91505092915050565b61053e8161071b565b82525050565b6105556105508261071b565b6107a0565b82525050565b60006105686015836106b4565b91507f796f75206e65656420626520746865204f776e657200000000000000000000006000830152602082019050919050565b60006105a8601c836106b4565b91507f6e6565642061207072697a6520746f2073657420612077696e6e6572000000006000830152602082019050919050565b6105e48161074d565b82525050565b6105fb6105f68261074d565b6107c4565b82525050565b600061060d82866105ea565b60208201915061061d8285610544565b60148201915061062d82846105ea565b602082019150819050949350505050565b60006020820190506106536000830184610535565b92915050565b600060208201905081810360008301526106728161055b565b9050919050565b600060208201905081810360008301526106928161059b565b9050919050565b60006020820190506106ae60008301846105db565b92915050565b600082825260208201905092915050565b60006106d08261074d565b91506106db8361074d565b9250827fffffffffffffffffffffffffffffffffffffffffffffffffffffffffffffffff038211156107105761070f6107ff565b5b828201905092915050565b60006107268261072d565b9050919050565b600073ffffffffffffffffffffffffffffffffffffffff82169050919050565b6000819050919050565b60006107628261074d565b91507fffffffffffffffffffffffffffffffffffffffffffffffffffffffffffffffff821415610795576107946107ff565b5b600182019050919050565b60006107ab826107b2565b9050919050565b60006107bd8261085d565b9050919050565b6000819050919050565b60006107d98261074d565b91506107e48361074d565b9250826107f4576107f361082e565b5b828206905092915050565b7f4e487b7100000000000000000000000000000000000000000000000000000000600052601160045260246000fd5b7f4e487b7100000000000000000000000000000000000000000000000000000000600052601260045260246000fd5b60008160601b9050919050565b6108738161074d565b811461087e57600080fd5b5056fea2646970667358221220e1d387e694029f7f98a09bf327cf827ce093ab3f2efdb0a4acd08f4ed767e24664736f6c63430008000033",
  "linkReferences": {},
  "deployedLinkReferences": {}
}